:020000040000fa
:080000000002040000000000f2
:020000040000fa
:1000080090020000900200009002000090020000a0
:100018009002000090020000900200009002000090
:100028009002000090020000900200009002000080
:10003800900200009002000090020000620500009b
:1000480090020000900200008c0500009002000061
:100058009002000094050000900200009002000049
:10006800d005000090020000900200005a05000030
:100078009002000090020000900200009002000030
:100088009002000090020000900200009002000020
:100098009002000090020000900200009002000010
:1000a8009002000090020000900200009002000000
:1000b80090020000900200009002000090020000f0
:1000c80090020000900200009002000090020000e0
:1000d80090020000900200009002000090020000d0
:1000e80090020000900200009002000090020000c0
:1000f80090020000900200009002000090020000b0
:10010800900200009002000090020000900200009f
:10011800900200009002000090020000900200008f
:10012800900200009002000090020000900200007f
:10013800900200009002000090020000900200006f
:10014800900200009002000090020000900200005f
:10015800900200009002000090020000900200004f
:10016800900200009002000090020000900200003f
:10017800900200009002000090020000900200002f
:10018800900200009002000090020000900200001f
:10019800900200009002000090020000900200000f
:1001a80090020000900200009002000090020000ff
:1001b80090020000900200009002000090020000ef
:1001c80090020000900200009002000090020000df
:1001d80090020000900200009002000090020000cf
:1001e80090020000900200009002000090020000bf
:0801f8009002000090020000db
:020000040000fa
:10020800900200009002000090020000900200009e
:10021800900200009002000090020000900200008e
:10022800900200009002000090020000900200007e
:100238009002000090020000900200006205000099
:1002480090020000900200008c050000900200005f
:100258009002000094050000900200009002000047
:10026800d005000090020000900200005a0500002e
:10027800900200009002000090020000900200002e
:10028800900200009002000090020000900200001e
:10029800900200009002000090020000900200000e
:1002a80090020000900200009002000090020000fe
:1002b80090020000900200009002000090020000ee
:1002c80090020000900200009002000090020000de
:1002d80090020000900200009002000090020000ce
:1002e80090020000900200009002000090020000be
:1002f80090020000900200009002000090020000ae
:10030800900200009002000090020000900200009d
:10031800900200009002000090020000900200008d
:10032800900200009002000090020000900200007d
:10033800900200009002000090020000900200006d
:10034800900200009002000090020000900200005d
:10035800900200009002000090020000900200004d
:10036800900200009002000090020000900200003d
:10037800900200009002000090020000900200002d
:10038800900200009002000090020000900200001d
:10039800900200009002000090020000900200000d
:1003a80090020000900200009002000090020000fd
:1003b80090020000900200009002000090020000ed
:1003c80090020000900200009002000090020000dd
:1003d80090020000900200009002000090020000cd
:1003e80090020000900200009002000090020000bd
:0803f8009002000090020000d9
:020000040000fa
:10040000af8420000eff20000e01880000000000d5
:100410000c000700207020000100200011000700e0
:10042000000020000000e000020032000000020096
:10043000000000004e050200000000000040da004d
:100440000000fe004440a900000020000000e00081
:100450000300320000002000a00188004440a800f2
:100460000000060091018800800078000000eb0089
:1004700015003700e280400032a0b4009101ba00bc
:10048000e280400032a0b4009102ba00e280400055
:1004900032a0b4000002eb00472bde00f507b200eb
:1004a000602ce10004003a000059eb008301e900f0
:1004b000fdff3e00040037006128e100010032002a
:1004c0000082eb00040007001101ba000200e00006
:1004d000e8ff3a00000006003159ba008301e90044
:1004e0000c0032002159ba008301e90008003200f3
:1004f0000400e00003003a00e280400032a0b400b3
:10050000f5ff370011d9ba008301e900faff3a007c
:100510008100e800e180400032a0b4000000060045
:080520000040da000000fe00bb
:020000040000fa
:100528000000fa0061c7a8006187a9000080fa00ee
:10053800000006000200fa00000f7800000000002a
:10054800013b80000000280000806000e00f5000a0
:10055800fbff3a00f0c7b30032e0b70001e02f001c
:100568001e8040001000ba000080fa00000006005b
:100578000400fa00000f780011079800000000003e
:10058800013b80000000280000806000e00f500060
:10059800fbff3a0080052400003b8800f0c7b30049
:1005a80032e0b70001e02f001e8040008080eb00a1
:1005b8000108bb000500fc0050052000303b880006
:1005c800a00a2000303b880061e7a8000000000076
:1005d8000000000000000000013b8000000028002f
:1005e80000806000e00f5000fbff3a00400024004c
:1005f800003b880001e02f001e8040009e00900014
:100608000108bb000500fc0050052000303b8800b5
:10061800a00a2000303b880061e7a8000000000025
:10062800000000000080fa00000006000400fa0044
:10063800004f780011479800224798009e4090008c
:100648002e40900000c06000804078002e4090004e
:1006580000c1ea001e4078000040610000c0700040
:100668000080fa00000006000200fa00881f7800e7
:100678000000eb00000f78000000eb00000f78008e
:1006880010003700c08120001e0040001044780090
:100698001e0078000020b100a6ff07008040780007
:1006a800408020001e00400010407800084178007b
:1006b800deff0700418020009e80400080487800cf
:1006c8001e0fe8001e007800f50f5000edff340003
:1006d8004f0478000080fa00000006000200fa00cb
:1006e8000000eb00000f78000000eb00000f78001e
:1006f80008003700408020001e00400010407800ad
:100708008000fb001e0078000020b10098ff070061
:100718001e0fe8001e007800f50f5000f5ff3400aa
:100728000080fa00000006000000fa0000c0eb009c
:100738001de8b70000c0eb001ee8b70000c0eb00e2
:1007480020e8b70000c0eb0022e8b70000c0eb00cb
:1007580024e8b70000c0eb0023e8b70000c0eb00b6
:1007680025e8b70000c0eb001fe8b70000c0eb00a9
:1007780021e8b7000080fa00000006000000fa0037
:1007880033c8bf00e04f5000030032000040eb00c8
:1007980033e8b700d1ff070038c8bf00e04f50006a
:1007a800020032000040eb0038e8b7003ac8bf004a
:1007b800e04f5000020032000040eb003ae8b7007a
:1007c80039c8bf00e04f5000020032000040eb0083
:1007d80039e8b7003bc8bf00e04f500002003200c4
:1007e8000040eb003be8b70034c8bf00e04f5000c2
:1007f800020032000040eb0034e8b70036c8bf0002
:10080800e04f5000020032000040eb0036e8b7002d
:1008180035c8bf00e04f50000500320007c8bf00d0
:100828000000fb00000d88000040eb0035e8b70031
:1008380037c8bf00e04f50000500320009c8bf00ac
:100848000000fb00500d88000040eb0037e8b700bf
:100858000080fa00000006000000fa000000eb002b
:10086800002788000000eb0010278800c942a90073
:10087800c962a900c982a800c9a2a800c9c2a80063
:10088800c9e2a800c922a900c902a900c082a9001a
:10089800c8a2a900c8c2a900e384a800e3a4a800cc
:1008a800e3c4a800e3e4a8000000eb0020168800d9
:1008b8000000eb00601688000080fa0000000600c7
:1008c8000000fa00213a8000f08f2f0000806000bd
:1008d800203a880041e3a80041a3a900011a80003a
:1008e800f0cf2f0000806000001a88004223a90082
:1008f800011a8000f0f02f008080600000072000bf
:1009080000807000001a88004043a8004343a800f4
:10091800111a800030f82f0000806000c000b3007a
:10092800101a88004203a900f0c3b30044e3b700db
:10093800211a800000f0210000807000201a880031
:10094800411a8000f0f12f0000806000401a8800f2
:1009580000e02100801a88000000eb00701a88006f
:1009680085a0a90095a0a800d10c800080ff2f00c9
:10097800008060005000b300d00c8800d10c8000cb
:1009880000c0210000807000d00c88009a61a90086
:10099800e00c8000f001b300e00c8800210d80001d
:1009a80080ff2f00008060005000b300200d8800f9
:1009b800210d800000c0210000807000200d8800fb
:1009c800a461a900300d8000f001b300300d88004b
:1009d80000082000f00c880000082000400d880066
:1009e80000042000000d880000042000500d88003d
:1009f8000000eb00300888001061a9008108800021
:100a0800f0fc2f00008060008008880011e1a80039
:100a1800800920006008880084e0a90094e0a8000c
:100a280007e2a80007a2a9000782a90006c2a90038
:100a38000762a9000742a9000702a9000702a90046
:100a48000000eb0060108800d0092000201088000a
:100a580040052000501088008600a9009600a800d4
:100a68000000eb00000888008009200010088800ba
:100a78008460a9009460a90021088000f0fc2f0080
:100a8800008060002008880005e1a9000080fa00c5
:100a9800000006000000fa006fff070088ff07004b
:100aa80021ff070035ff0700feff37000000fa00ae
:100ab8008660a9000080fa0000400600809fbe0002
:100ac800821f78000000fa00101680004400de0043
:100ad800614060000004a200614060000080fb00eb
:100ae800610060004400dd0012168000f1fe2f0056
:100af80081006100008070001016880084e0a90061
:100b08000080fa004f0178004f00be000040060048
:100b18000000fa008540a9000080fa0000400600a5
:100b2800809fbe000200fa00001880004800de0026
:100b3800004078000ee8b7000018800000407800f8
:100b48000fe8b700101880004800de000040780069
:100b580010e8b700101880000040780011e8b700ce
:100b68002118800030188000008f50001e00780087
:100b78004800de000040780016e8b7001e00780044
:100b88000040780017e8b70085a0a9000080fa00a7
:100b98004f00be00004006003600f800809fbe00ef
:100ba800829fbe00849fbe00869fbe00881f78007b
:100bb8000200fa004110800000022000008060005e
:100bc800e00f50002c003a00101680004400de00b0
:100bd800614060000004a200614060000080fb00ea
:100be800610060004400dd0012168000f1fe2f0055
:100bf800810061000080700010168800401080009d
:100c080064006000e00f500008003a000010800007
:100c1800004f780011408000c0ff2f000080600066
:100c28000000a000104088005f00370040108000de
:100c380064006000e00f50005b003200001080008c
:100c4800004f7800d14080004080200000804000a4
:100c5800104078000000fb00101088000782a800f0
:100c6800000000004010800061006000e00f5000ac
:100c7800fcff3a004c003700401080006400600020
:100c8800e00f500017003200d04080000000e8005c
:100c9800d0408800d0408000f50f50000200360098
:100ca8000000eb00d040880000108000004f780062
:100cb800d140800040802000008040001040780033
:100cc8000000fb00101088000782a8000000000048
:100cd8004010800061006000e00f5000fcff3a0007
:100ce800310037001040800063006000e10f5000c1
:100cf8000d003a0011408000c0ff2f000080600006
:100d08000010a0001040880000108000d04088002b
:100d1800d0408000f50f5000230036000000eb00a3
:100d2800d040880020003700104080006300600039
:100d3800e20f50001c003a00d8408000d1408000eb
:100d4800c081200000804000104178000010800021
:100d580080407800d340800040802000008041001f
:100d68001040780031fe07004180200081004400d7
:100d780080487800d1408000208320008080400097
:100d880010c0b30080487800d04080000000e80020
:100d9800d0408800d0408000f50f50000200360097
:100da8000000eb00d0408800104080000040780030
:100db80063406000614060000080fb0061006000eb
:100dc8004500dd0052168000f1fd2f008100610012
:100dd80000807000501688008600a9000080fa0084
:100de8004f0478004f03be004f02be004f01be0003
:0c0df8004f00be003600f900004006006d
:020000040000fa
:100e0400000800004a00000000000000000000008c
:020000040000fa
:0200000401f009
:040000000f000000ed
:020000040000fa
:0200000401f009
:0400080003000000f1
:020000040000fa
:0200000401f009
:04000c0042000000ae
:020000040000fa
:0200000401f009
:04001000da00000012
:020000040000fa
:0200000401f009
:040014005f00000089
:020000040000fa
:0200000401f009
:04001800ff000000e5
:020000040000fa
:0200000401f009
:04001c00e3000000fd
:020000040000fa
:0200000401f009
:04002000df000000fd
:00000001FF
